:100000000C94AE2C0C94DF2C0C94DF2C0C94DF2C75
:100010000C94DF2C0C94DF2C0C94DF2C0C94DF2C34
:100020000C94DF2C0C94DF2C0C94DF2C0C94DF2C24
:100030000C94DF2C0D9430310C94DF2C0C94DF2CBD
:100040000C94DF2C0C9493400C94DF2C0C94DF2C3C
:100050000C94DF2C0C94DF2C0C9415390D94C333C5
:100060000C94DF2C0C943EBD0C9408BD0C94DF2C3A
:100070000C94DF2C0C94DF2C0C94DF2C0C94DF2CD4
:100080000C94DF2C0C94DF2C0C94DF2C0C94DF2CC4
:100090000C94DF2C0C94DF2C0C94DF2C0C94DF2CB4
:1000A0000C94DF2C0C94DF2C0C94DF2C0C94DF2CA4
:1000B0000C94DF2C0C94DF2C0C94DF2C0C94DF2C94
:1000C0000C94DF2C0C94DF2C0C94DF2C0C94DF2C84
:1000D0000C94DF2C0C94DF2C0C94DF2C0C94DF2C74
:1000E0000C94DF2C084AD73B3BCE016E84BCBFFD8D
:1000F000C12F3D6C74319ABD56833DDA3D00C77FF8
:1001000011BED9E4BB4C3E916BAAAABE0000008090
:100110003F05A84CCDB2D44EB93836A9020C50B91F
:10012000918688083CA6AAAA2ABE000000803F004B
:100130000C945A920C943AD40C94E9E20D94BA15AA
:100140000C9414D60D9451150C94D4BD0C94C8BDC8
:100150000C94A5930C9439940C9414940D946432DB
:100160000C9480A50C944A310C94E7710C940CEA21
:100170000C94F0640C9438310D94B4150D946B4FBD
:100180000C94312E0C94B0D30C9423F20C94386759
:100190000C9465E80C949BA50C9406E60C9487E4FB
:1001A0000D948C130C94B0D60C9477E30D94C81571
:1001B0000C9426E60C9494D50D94B5320C94A6922A
:1001C0000C94A37B0C940BD70C940DD70C9402EDDC
:1001D0000C9491DC0C9413D70C9497A50C9409D72C
:1001E0000C9411D70C941DD30C94DB8A0C94843995
:1001F0000D9454150C949EA50D94A9150D944B3295
:100200000C94C9D30D94C9320C94A9E60C9495D5DD
:100210000D9450320C9478BD0C9412E60C949CEA28
:100220000C9497DC0C94CED60C9407320C948EDC94
:100230000C9491A50D949C320C9486A50C940EE61A
:100240000D9488320C94D6D60C94E2D50C941531CA
:100250000C94FCEC0D94DD320C9430FE0C94FAD628
:100260000C940AE60C944EA50C940FD70C9446DE21
:100270000C946CD60C94EFD60D94B1150D94BE155C
:100280000C9428D50C9417D70C9445E20C945B93EE
:100290000D94CC150C949ADC0C945CD30C9449A569
:1002A0000D9476320D94E4150D94AB320C94E7DB8B
:1002B0000C94A7D50C9483A50C94CCBD0C94A2D51A
:1002C0000C948CD70C9409F40C94F1320D945215C3
:1002D0000C9430EA0C941EE60C9437D50D946A10F9
:1002E0000D94D6150D9473470D94E0150C9418EAEF
:1002F0000C9480930C94ABE80D94DA150D94D332E2
:100300000C9479A50C9409320D9443320C944DD47D
:100310000C9494DC0D944A110D94AD0E0C94D2D62D
:100320000C9406EA0C947CA50C949FDC0D945A3234
:100330000C9412EA0C94EF930C9483940C9416E6AC
:100340000C9460E80C9420320C9408D40C94087A35
:100350000C9428DA0C9455DC0C94A4DC0D946E32C9
:100360000C9441310D9492320C9485DC0C948DA543
:100370000C94E2D30C94F2DC0C948AA50C94E0BDAE
:100380000C9438930C9456E80C9498D50C9456E43D
:100390000C9494A50C94F9DB0C942AEA0C94736EDB
:1003A0000D94C4150C9488DC0C94D8F20C945BE882
:1003B0000D9465160D9497020C946DE40C9474D70B
:1003C0000C94D8BD0D94F1080C94A8A50C948BDC6A
:1003D0000C94FFEC0C94A1A50D9467010C94FBD533
:1003E0000C94A7BD0C9415D70C94A1E40C948C6EBE
:1003F0000C94F0920C946EF50C949DD50D94BF3234
:100400000C9422E60C94CA930C9421D40D94DF151D
:100410000C94E1DB0D94BF0B0C947ADC0C94F3DBB1
:100420000D94A5150D949F150C945E940C94159342
:100430000C9486920C94EDDB0C9432D70C94A5A509
:100440000C941AE60C9495D30C94D0BD0C941EEA2F
:100450000C94A7940C94C1BD0C9424EA0C94B6BDE2
:100460000C942AE60C943AD50C94CB920C9483D736
:100470000D94D2150C9436EA0D94AD150C94E5EE5E
:100480000D947E320D940D0A0C94F5D30C94A1DCDE
:100490004E414E494E495459494E46CDCCCC3D0A69
:1004A000D7233C17B7D13877CC2B329595E6241F4C
:1004B000B14F0A000020410000C84200401C462005
:1004C000BCBE4CCA1B0E5AAEC59D7400407A10F3D8
:1004D0005A00A0724E18090010A5D4E80000E87672
:1004E00048170000E40B54020000CA9A3B000000C9
:1004F000E1F505000080969800000040420F0000E2
:1005000000A08601000000102700000000E80300A2
:100510000000006400000000000A0000000000016C
:1005200000000000002C76D888DC674F0823DFC16C
:10053000DFAE59E1B1B796E5E3E453C63AE6519927
:100540007696E8E6C28426EB898C9B62ED407C6F50
:10055000FCEFBC9C9F40F2BAA56FA5F490055A2A07
:10056000F75C936B6CF9676DC11BFCE0E40D47FE13
:10057000F520E6B500D0ED902E0300943577050008
:1005800080841E080000204E0A000000C80C33338F
:1005900033330F986E12831141EF8D2114893BE69E
:1005A0005516CFFEE6DB18D1844B381BF77C1D9027
:1005B0001DA4BBE424203284725E228100C9F12490
:1005C000ECA1E53D2700060C00FE0000000000D174
:1005D000D1000700000005070706000050007088E2
:1005E000F0807000060C00FE0000000000CBCF0081
:1005F000050000000505050600008888C8A8C80495
:1006000005050601008080E090E004050506010074
:10061000E0107010E005050506000090A8E8A8901D
:10062000040505060100709070509000060C00FE55
:100630000000000000AFC90008FE00000507070623
:10064000000078888878284888050505060000702D
:10065000087888780507070600007080F088888889
:1006600070050505060000F088F088F00505050610
:100670000000F8808080800506060600FF3050509C
:1006800050F8880505050600007088F080700505A3
:1006900005060000A8702070A8050505060000707A
:1006A000883088700505050600008898A8C8880568
:1006B00008080600008870008898A8C88804050506
:1006C00006010090A0C0A09005050506000038486E
:1006D00048488805050506000088D8A888880505CB
:1006E000050600008888F888880505050600007062
:1006F00088888870050505060000F88888888805C0
:1007000007070600FEF0888888F08080050505064A
:1007100000007088808870050505060000F820201C
:1007200020200507070600FE88888888780870055D
:1007300009090600FE202070A8A8A8702020050541
:100740000506000088502050880507070600FE9027
:10075000909090F80808050505060000888878083C
:1007600008050505060000A8A8A8A8F805070706BB
:1007700000FEA8A8A8A8F8080800060C00FE0000C3
:10078000000000ABAD0007000000050707060000F1
:10079000888888C8A8A8C804070706010080808048
:1007A000E09090E005070706000070880878088848
:1007B0007000060C00FE00000000009AA80007FE72
:1007C00000000507070600008890A0C0A0908805DB
:1007D00007070600003848484848488805070706C4
:1007E000000088D8A8888888880507070600008840
:1007F0008888F88888880507070600007088888838
:10080000888870050707060000F888888888888827
:10081000050707060000F08888F08080800507073C
:100820000600007088808080887005070706000039
:10083000F82020202020200507070600008888884F
:10084000887808700507070600002070A8A8A8701F
:100850002005070706000088885020508888050971
:10086000090600FE909090909090F8080805070700
:100870000600008888887808080805070706000031
:10088000A8A8A8A8A8A8F800060C00FE0000000070
:100890000090980007FF0000050707060000708819
:1008A00088F8888888050707060000F08080F088AF
:1008B00088F0050707060000F08888F08888F005B2
:1008C0000707060000F88080808080800508080601
:1008D00000FF305050505050F888050707060000C0
:1008E000F88080F08080F8050707060000A8A8704F
:1008F0002070A8A8050707060000708808700888FF
:1009000070050707060000888898A8C888884D38B1
:100910003400D092D18BD0BAD0BBD18ED187D0B891
:10092000D182D18C20D0B4D0B2D0B8D0B3D0B0D195
:1009300082D0B5D0BBD0B800D09AD0B0D0BBD0B8A0
:10094000D0B1D180D0BED0B2D0BAD0B020D181D178
:1009500082D0BED0BBD0B0004732385A00D09FD032
:10096000B0D180D0BAD0BED0B2D0BAD0B0205A0068
:100970004732385900D09FD0B0D180D0BAD0BED045
:10098000B2D0BAD0B02059004732385800D09FD0EA
:10099000B0D180D0BAD0BED0B2D0BAD0B02058003A
:1009A00047323800D09FD0B0D180D0BAD0BED0B2BC
:1009B000D0BAD0B02058595A00D09CD0B5D0BDD1B3
:1009C0008E00D09DD0B0D0B3D180D0B5D0B2205061
:1009D0004C4120D181D0BED0BFD0BBD0BE00D09D75
:1009E000D0B0D0B3D180D0B5D0B220504C4120D1BE
:1009F00081D182D0BED0BB00D09DD0B0D0B3D18049
:100A0000D0B5D0B2205045544720D181D0BED0BF00
:100A1000D0BBD0BE00D09DD0B0D0B3D180D0B5D0A7
:100A2000B2205045544720D181D182D0BED0BB00E6
:100A3000D0A2D0B5D0BCD0BFD0B5D180D0B0D182FB
:100A4000D183D180D0B000D09ED185D0BBD0B0D0E2
:100A5000B6D0B4D0B5D0BDD0B8D0B500D09FD1807D
:100A6000D0B5D0B4D0BDD0B0D0B3D180D0B5D0B295
:100A7000205045544700D09FD180D0B5D0B4D0BDD0
:100A8000D0B0D0B3D180D0B5D0B220504C4100D03E
:100A90009AD183D0BBD0B5D18000D0A1D182D0BEB5
:100AA000D0BB00D0A1D0BED0BFD0BBD0BE00D09CA8
:100AB000D0B5D0BDD18E004B20D0BFD180D0BED01C
:100AC000B4D0B2D0B8D0B6D0B5D0BDD0B8D18F00E8
:100AD000D09FD0BED182D0BED0BA00D09AD183D020
:100AE000BBD0B5D18000D0A1D182D0BED0BB00D0C8
:100AF000A1D0BED0BFD0BBD0BE005A20D181D18200
:100B0000D0BED0BBD0B000D0A1D0BAD0BED180D0A2
:100B1000BED181D182D18C00D09CD0B5D0BDD18E38
:100B200000202020202020200020202020001FE066
:100B30003FF03FF03FF01FE01FE03FF03FF03FF09D
:100B40000FC0078003001FE020102010201010208D
:100B500010202010201030300840048003003FFF98
:100B6000F83E00F839F03831E01831E01821E1E8BA
:100B700020F3E8207FE82077E828EE282FDC082FF4
:100B8000FC082F9E082F0F08300F18300F18381F41
:100B9000383E00F83FFFF83FFFF83E00F8383F3896
:100BA000307E18307C18287C082C38082F39C82F44
:100BB000FFE82FC7E82FFFE82739E8203868207CB6
:100BC00028307C1830FC1839F8383E00F83FFFF820
:100BD0003FFFF83E00F8380F38341FD8361F982FE3
:100BE0001F082F9E082FFC082FDC0827EFC820774E
:100BF000E8207FE820F3E821F1E833F0D837F05817
:100C000039E0383E00F83FFFF83FFFF83E80F83902
:100C100080383781D837C3D827C7E823C7F821FFE2
:100C200088206C08206C08206C0823FF083FC788C8
:100C30002FC7C83787D83703D83803383E02F83F64
:100C4000FFF81FFFF81FFFF80410400208200208F9
:100C5000200410400820801041001041000820802E
:100C60000410400000001FFFF81FFFF808009098D4
:100C70008700870808009AA8D600B1070800ABAD26
:100C8000380079070800AFC94E012B060800CBCF0A
:100C90004800E3050800D1D11E00C505D09AD0B0A8
:100CA000D180D182D0B020D0B8D0B7D0B2D0BBD014
:100CB000B5D187D0B5D0BDD0B000D09AD0B0D1805A
:100CC000D182D0B020D0B2D181D182D0B0D0B2D038
:100CD000BBD0B5D0BDD0B000D09FD0B5D187D0B0FB
:100CE000D182D18C20D0BED182D0BCD0B5D0BDD0E5
:100CF000B5D0BDD0B0004D323520500A4D32340051
:100D0000D09FD0B0D183D0B7D0B020D0BFD0B5D194
:100D100087D0B0D182D0B8000000574300005743BD
:100D200000004D430000A0C00000000000000000D3
:100D3000290A002062797465733B20637263200086
:100D400053657474696E67732053746F72656420A1
:100D50002800454550524F4D206461746173697A93
:100D600065206572726F722E0A00290A002062796E
:100D70007465733B2063726320002073746F726527
:100D8000642073657474696E677320726574726928
:100D9000657665642028004572723A2045455052B8
:100DA0004F4D2043524300202863616C63756C6192
:100DB00074656429210A0020213D200045455052D8
:100DC0004F4D20435243206D69736D6174636820F9
:100DD0002D202873746F7265642920004572723A61
:100DE00020454550524F4D20496E64657800205390
:100DF000697A653A2000496E6465783A2000457248
:100E0000723A20454550524F4D2056657273696FB6
:100E10006E00204D61726C696E3D563736290A00AE
:100E2000454550524F4D2076657273696F6E206D47
:100E300069736D617463682028454550524F4D3D7C
:100E40000048617264636F6465642044656661751F
:100E50006C742053657474696E6773204C6F6164A1
:100E600065640A000000FA430000FA430000C04035
:100E70000000F0410000A0420000A0420000C84372
:100E80000000C043B80B0000D00700003C00000089
:100E9000102700003B200020204D3630332000205A
:100EA000204D34313220530046696C616D656E749B
:100EB0002072756E6F75742073656E736F723A0071
:100EC0002055004C0046696C616D656E74206C6F36
:100ED00061642F756E6C6F6164206C656E677468F9
:100EE000733A0020204D393030204B004C696E653C
:100EF000617220416476616E63653A00204400208F
:100F0000490020204D333034205000204400204937
:100F10000020204D3330312050005049442073656B
:100F20007474696E67733A002046002042002048BE
:100F30000020204D3134352053004D6174657269B5
:100F4000616C2068656174757020706172616D6597
:100F5000746572733A0020204D36363600456E6453
:100F600073746F702061646A7573746D656E743A22
:100F7000002020473239205334205A00204A0020D4
:100F80002047323920533320490020204D3432305D
:100F90002053004D65736820426564204C6576657A
:100FA0006C696E673A0020204D3230362058004878
:100FB0006F6D65206F66667365743A00204A002085
:100FC000530020204D323035204200416476616E5E
:100FD0006365643A20423C6D696E5F7365676D6559
:100FE0006E745F74696D655F75733E20533C6D6907
:100FF0006E5F66656564726174653E20543C6D6920
:101000006E5F74726176656C5F666565647261744B
:10101000653E204A3C6A756E635F6465763E0020DB
:10102000540020520020204D3230342050004163C3
:1010300063656C65726174696F6E2028756E697482
:10104000732F7332293A20503C7072696E745F615D
:101050006363656C3E20523C726574726163745FB9
:10106000616363656C3E20543C74726176656C5FAD
:10107000616363656C3E0020204D323031205800A2
:101080004D6178696D756D20416363656C65726152
:1010900074696F6E2028756E6974732F7332293AE4
:1010A0000020204D3230332058004D6178696D7535
:1010B0006D206665656472617465732028756E695C
:1010C00074732F73293A00537465707320706572BE
:1010D00020756E69743A0020204D32303020443043
:1010E0000A0020204D3230302044002044697361D2
:1010F000626C65640A0046696C616D656E7420738C
:10110000657474696E67733A0020204D313439205C
:1011100043203B20556E69747320696E2043656CD3
:10112000736975730A0020286D6D290020204732ED
:1011300031202020203B20556E69747320696E2079
:101140006D6D006F70656E005452494747455245BA
:1011500044003A200066696C616D656E74007A32F5
:101160005F6D696E007A5F6D696E00795F6D696EA3
:1011700000785F6D696E005265706F7274696E679A
:1011800020656E6473746F70207374617475730A74
:101190000020746F6F206C6F6E67206578747275B5
:1011A00073696F6E2070726576656E7465640A008F
:1011B00020636F6C6420657874727573696F6E203C
:1011C00070726576656E7465640A00D092D0BED088
:1011D000B7D0B2D180D0B0D18220D0BDD0B520D18F
:1011E00083D0B4D0B0D0BBD181D18F000000A0C0DB
:1011F00000000000000000000000484200004842DB
:10120000000080405761726E696E673A20486F6DCA
:10121000696E672042756D702044697669736F72DC
:10122000203C20310A000202040000A0400000A07F
:10123000400000004000005C430000574300004DA8
:1012400043FFFFFF000000010000000100008000DC
:10125000555555000000400033333300AAAA2A0038
:101260004992240000002000C7711C0099991900C0
:10127000D1451700555515003BB113002449120004
:1012800011111100000010000F0F0F00E3380E00C5
:1012900043790D00CCCC0C00C3300C00E8A20B004D
:1012A00064210B00AAAA0A00703D0A009DD809001B
:1012B000427B090092240900DCD3080088880800DA
:1012C0001042080000000800F0C1070087870700EF
:1012D00075500700711C07003EEB0600A1BC06001C
:1012E0006990060066660600703E060061180600FA
:1012F00017F4050074D105005BB00500B29005003D
:10130000627205005555050078390500B81E0500C4
:10131000050505004EEC040087D40400A1BD0400BF
:1013200090A7040049920400C17D0400EE69040006
:10133000C7560400444404005C3204000821040041
:1013400041100400000004003FF00300F8E0030037
:1013500026D20300C3C30300CCB503003AA80300A0
:101360000A9B0300388E0300C08103009F750300B1
:10137000D0690300505E03001D530300344803008E
:10138000913D03003333030016290300381F030087
:1013900097150300300C0300030303000BFA02004F
:1013A00049F10200BAE802005CE002002DD8020018
:1013B0002DD0020059C80200B0C0020031B90200AD
:1013C000DAB10200AAAA0200A0A30200BC9C02009B
:1013D000FA9502005C8F0200DF8802008282020020
:1013E000457C02002776020027700200436A020053
:1013F0007C640200D05E02003F590200C853020024
:10140000FFFDFCFAF8F6F4F2F0EEECEAE9E7E5E3CA
:10141000E1E0DEDCDAD9D7D5D4D2D0CFCDCBCAC883
:10142000C7C5C3C2C0BFBDBCBAB9B7B6B4B3B2B00A
:10143000AFADACAAA9A8A6A5A4A2A1A09E9D9C9A66
:1014400099989795949392908F8E8D8B8A8988879F
:101450008684838281807F7E7D7B7A7978777675BA
:1014600074737271706F6E6D6C6B6A6968676665B4
:1014700064636261605F5E5D5C5B5A5958585756A1
:10148000555453525150504F4E4D4C4B4A4A494877
:10149000474646454443424241403F3E3E3D3C3B39
:1014A0003B3A3938383736353534333232313030EB
:1014B0002F2E2E2D2C2B2B2A292928272726252590
:1014C00024232322212120201F1E1E1D1C1C1B1B28
:1014D0001A191918181716161515141313121211B4
:1014E00011100F0F0E0E0D0D0C0C0B0A0A09090836
:1014F00008070706060505040403030202010000AD
:1015000024F4D43050C38E20C2A24017828B7011B5
:10151000127A910D816CD90AA861E108C758660753
:10152000615143061E4B5D05C145A7041A411104D4
:10153000093D9803713931034036DB02653391026E
:10154000D4305402802E1D02632CEE01752AC50191
:10155000B028A001102781018F2564012B244B01A5
:10156000E0223401AC211F018D200D01801FFC0001
:10157000841EED00971DDF00B81CD200E61BC600DC
:10158000201BBC00641AB200B219A8000A19A000FE
:101590006A189900D117910040178B00B516840086
:1015A00031167E00B31579003A157300C7146F0029
:1015B00058146A00EE1366008813630025135E005A
:1015C000C7125B006C12570015125400C111510074
:1015D00070114F0021114B00D61049008D104700AB
:1015E0004610440002104200C00F4000800F3E0031
:1015F000420F3C00060F3B00CB0E3800930E370025
:101600005C0E3500270E3400F30D3200C10D3100A1
:10161000900D3000600D2E00320D2D00050D2C00B8
:10162000D90C2B00AE0C2900850C29005C0C27007E
:10163000350C27000E0C2600E80B2400C40B2400F8
:10164000A00B23007D0B23005A0B2100390B210036
:10165000180B2000F80A1F00D90A1E00BB0A1E0042
:101660009D0A1D00800A1D00630A1C00470A1B001A
:101670002C0A1B00110A1A00F7091A00DD091900CB
:10168000C4091900AB091900920917007B09180059
:10169000630917004C0916003609160020091600C8
:1016A0000A091500F5081500E0081400CC0814001C
:1016B000B8081400A4081400900813007D08120054
:1016C0006B08130058081200460812003408110075
:1016D000230811001208110001081100F007100082
:1016E000E0071000D0071000C0071000B0070F007F
:1016F000A107100091070E0083070F0074070F0069
:1017000065070E0057070E0049070E003B070D0046
:101710002E070E0020070D0013070D0006070D0011
:10172000F9060C00ED060D00E0060C00D4060C00D6
:10173000C8060C00BC060C00B0060C00A4060B008A
:1017400099060C008D060B0082060B0077060B0035
:101750006C060B0061060A0057060B004C060A00D7
:1017600042060A0038060A002E060A0024060A006D
:101770001A060A001006090007060A00FD050900FE
:10178000F4050900EB050900E2050900D905090087
:10179000D0050900C7050900BE050900B505080008
:1017A000AD050800A50509009C0508009405080082
:1017B0008C050800840508007C05080074050800F5
:1017C0006C050700650508005D0507005605080063
:1017D0004E050700470507004005080038050700CB
:1017E000310507002A050700230507001C05060030
:1017F000160507000F05070008050600020507008B
:10180000FB040600F5040700EE040600E8040600E9
:10181000E2040700DB040600D5040600CF0406003E
:10182000C9040600C3040600BD040600B704060090
:10183000B1040500AC040600A6040600A0040500DF
:101840009B04060095040500900406008A04050028
:1018500085040500800406007A040500750405006F
:10186000700405006B0405006604050061040500B2
:101870005C04050057040500520405004D040500F2
:1018800048040500430405003E0404003A04050032
:1018900035040500300404002C040500270404006E
:1018A000230405001E0404001A04040016040500A5
:1018B000110404000D0404000904050004040400DC
:1018C00000040400FC030400F8030400F403040013
:1018D000F0030400EC030400E8030400E403040044
:1018E000E0030400DC030400D8030400D403040074
:1018F000D0030400CC030400C8030300C5030300A5
:1019000024F404D9201BC40C5C0E9804C4095F02A3
:1019100065077101F405F900FB04B3004804870072
:10192000C10369005803550003034500BE023A0095
:101930008402310053022A002902250004022000FB
:10194000E4011C00C8011900AF0117009801140040
:1019500084011300710110006101100051010E009B
:1019600043010D0036010B002B010B0020010B0081
:10197000150109000C01090003010800FB00080023
:10198000F3000800EB000700E4000600DE0006009C
:10199000D8000600D2000600CC000500C7000500F4
:1019A000C2000500BD000400B9000400B500040039
:1019B000B1000400AD000400A9000400A50003006C
:1019C000A20003009F0004009B0003009800030096
:1019D0009500020093000300900003008D000200B8
:1019E0008B000300880002008600020084000300D0
:1019F000810002007F0002007D0002007B000200E7
:101A000079000200770001007600020074000200F5
:101A100072000100710002006F0002006D00010001
:101A20006C0002006A00010069000200670001000A
:101A30006600010065000100640002006200010010
:101A400061000100600001005F0002005D00010014
:101A50005C0001005B0001005A0001005900010018
:101A60005800010057000100560001005500010018
:101A70005400010053000000530001005200010017
:101A800051000100500001004F0001004E00000015
:101A90004E0001004D0001004C0001004B00000011
:101AA0004B0001004A00010049000100480000000D
:101AB0004800010047000100460000004600010008
:101AC0004500000045000100440001004300000003
:101AD00043000100420000004200010041000000FC
:101AE00041000100400001003F0000003F000100F4
:101AF0003E0000003E0001003D0000003D000100EE
:101B00003C0000003C0000003C0001003B000000E5
:101B10003B0001003A0000003A00010039000000DB
:101B200039000100380000003800000038000100D2
:101B300037000000370001003600000036000000CA
:101B400036000100350000003500000035000100BE
:101B500034000000340000003400010033000000B5
:101B600033000000330001003200000032000000AA
:101B7000320001003100000031000000310001009E
:101B80003000000030000000300001002F00000095
:101B90002F0000002F0000002F0001002E00000089
:101BA0002E0000002E0001002D0000002D0000007E
:101BB0002D0000002D0001002C0000002C00000072
:101BC0002C0000002C0001002B0000002B00000066
:101BD0002B0000002B0001002A0000002A0000005A
:101BE0002A0000002A00010029000000290000004E
:101BF0002900000029000000290001002800000041
:101C00002800000028000000280000002800010033
:101C10002700000027000000270000002700000028
:101C2000270001002600000026000000260000001A
:101C3000260000002600010025000000250000000D
:101C400025000000250000002500000025000100FF
:101C500024000000240000002400000024000000F4
:101C600024000100230000002300000023000000E6
:101C700023000000230000002300000023000100D7
:101C800022000000220000002200000022000000CC
:101C900022000000220001002100000021000000BD
:101CA00021000000210000002100000021000000B0
:101CB00021000100200000002000000020000000A2
:101CC0002000000020000000200000002000000094
:101CD000200001001F0000001F0000001F00000086
:101CE0001F0000001F0000001F0000001F00010077
:101CF0001E0000001E0000001E0000001E0000006C
:101D0000232C0000B8220000561800003A0F0000F3
:101D1000B8080000B1040000710200003E0100009C
:101D200020436F756E7420583A0000D0A1D182D044
:101D3000BED0BB00453100626564002C207379730E
:101D400074656D2073746F707065642120486561DF
:101D50007465725F49443A2000D0A0D0B0D0B7D0AB
:101D6000BED0B3D180D0B5D0B220D0BDD0B520D1B7
:101D700083D0B4D0B0D0BBD181D18F00486561741D
:101D8000696E67206661696C6564004D313132208F
:101D900053687574646F776E0070012C0190012791
:101DA00001B0012201C0011D01F001180110021350
:101DB0000130020E016002090190020401C002FF1D
:101DC000000003FA004003F5008003F000D003EBAD
:101DD000002004E6007004E100E004DC004005D7C8
:101DE00000C005D2004006CD00D006C8008007C361
:101DF000003008BE00F008B900C009B400B00AAF56
:101E000000B00BAA00D00CA500000EA000500F9B44
:101E100000C01096005012910000148C00C015876D
:101E200000B0178200B0197D00D01B7800001E732F
:101E30000040206E0090226900F024640040275F7B
:101E40000090295A00E02B5500102E500020304BF6
:101E50000010324600E033410090353C0010373727
:101E60000070383200A0392D00B03A2800A03B2382
:101E700000603C1E00103D1900903D1400103E0F04
:101E800000703E0A00C03E0500003F0000403FFBDE
:101E9000FF803FF6FFC03FF1FFD0A3D091D095D097
:101EA00093D090D09DD098D09520D0A2D095D09F9F
:101EB000D09BD09000546865726D616C2052756E35
:101EC0006177617900D09ED188D0B8D0B1D0BAD036
:101ED000B03A20D0A220D0BCD0B0D0BAD1812E0050
:101EE0004D415854454D502074726967676572655D
:101EF0006400D09ED188D0B8D0B1D0BAD0B03A204A
:101F0000D0A220D0BCD0B8D0BD2E004D494E5445F3
:101F10004D5020747269676765726564000A0A0033
:101F200020205A325F4D494E3A0020205A5F4D49D9
:101F30004E3A002020595F4D494E3A002020585F0C
:101F40004D494E3A004D383420582059205A2045EA
:101F500000202F002042403A0020403A0020573A0B
:101F60000020573A00496E76616C69642065787488
:101F700072756465720A007C3C3E5E2B3D3F2F5BB0
:101F80005D3B2C2A225C005A325F535445505F500F
:101F9000494E005A325F4D494E5F50494E005A3209
:101FA0005F454E41424C455F50494E005A325F44B6
:101FB00049525F50494E005A5F53544F505F504949
:101FC0004E005A5F535445505F50494E005A5F4D82
:101FD000494E5F50494E005A5F454E41424C455F65
:101FE00050494E005A5F4449525F50494E00595F74
:101FF00053544F505F50494E00595F535445505F02
:1020000050494E00595F4D494E5F50494E00595F4F
:10201000454E41424C455F50494E00595F4449523C
:102020005F50494E00585F53544F505F50494E0027
:10203000585F535445505F50494E00585F4D494ECC
:102040005F50494E00585F4D41585F50494E00580F
:102050005F454E41424C455F50494E00585F4449F0
:10206000525F50494E0053535F50494E0053455202
:10207000564F335F50494E00534552564F325F50D2
:10208000494E00534552564F315F50494E0053451B
:1020900052564F305F50494E0053445353005344FF
:1020A0005F4445544543545F50494E0053434B5F92
:1020B00050494E0052414D50535F44395F50494E94
:1020C0000052414D50535F44385F50494E005241D9
:1020D0004D50535F4431305F50494E004D4F53498E
:1020E0005F50494E004D49534F5F50494E004D419E
:1020F00058363637355F53535F50494E004C454490
:102100005F50494E004C43445F50494E535F525319
:10211000004C43445F50494E535F454E41424C454D
:10212000004C43445F50494E535F4437004C434496
:102130005F50494E535F4436004C43445F50494E14
:10214000535F4435004C43445F50494E535F443421
:10215000004B494C4C5F50494E0048454154455254
:102160005F4245445F50494E004845415445525FE7
:10217000305F50494E0046494C5F52554E4F5554C2
:102180005F50494E0046414E325F50494E00464135
:102190004E315F50494E0046414E5F50494E00451A
:1021A000315F535445505F50494E0045315F454EB5
:1021B00041424C455F50494E0045315F4449525FB2
:1021C00050494E0045315F43535F50494E00453002
:1021D0005F535445505F50494E0045305F454E4176
:1021E000424C455F50494E0045305F4449525F5074
:1021F000494E0045305F4155544F5F46414E5F5058
:10220000494E00455F4D5558325F50494E00455F7D
:102210004D5558315F50494E00455F4D5558305F20
:1022200050494E00444F474C43445F53434B004496
:102230004F474C43445F4D4F534900434F4E545218
:102240004F4C4C45525F46414E5F50494E00425400
:102250004E5F454E430042544E5F454E320042545D
:102260004E5F454E31004245455045525F50494E04
:10227000004156525F53535F50494E004156525FE2
:1022800053434B5F50494E004156525F4D4F5349A7
:102290005F50494E004156525F4D49534F5F504980
:1022A0004E0054584430005258443000434F4D4D76
:1022B000554E49434154494F4E0044525952554E90
:1022C000004552524F525300494E464F0045434835
:1022D0004F004572726F722077726974696E672061
:1022E000746F20454550524F4D210A003637260362
:1022F0002B3C3D382A2E303E1224221E1A1C180870
:10230000440A2C430809072C070001627573793AC7
:102310002070617573656420666F7220696E7075D8
:10232000740A00627573793A207061757365642070
:10233000666F7220757365720A00627573793A2050
:1023400070726F63657373696E670A004D36303063
:1023500000D09ED0A1D0A2D090D09DD09ED092D0BF
:102360009BD095D09DD09E2E20005072696E7465D2
:10237000722073746F707065642064756520746F6B
:10238000206572726F72732E2046697820746865BA
:10239000206572726F7220616E6420757365204DC6
:1023A00039393920746F20726573746172742E200C
:1023B0002854656D7065726174757265206973204B
:1023C00072657365742E205365742069742061668C
:1023D0007465722072657374617274696E67290A1C
:1023E000004E6F20436865636B73756D2077697469
:1023F00068206C696E65206E756D6265722C204C6C
:10240000617374204C696E653A20004E6F204368FA
:1024100065636B73756D2077697468206C696E6590
:10242000206E756D6265722C204C617374204C694E
:102430006E653A2000636865636B73756D206D6926
:10244000736D617463682C204C617374204C696EE9
:10245000653A20004C696E65204E756D626572208C
:102460006973206E6F74204C617374204C696E65C3
:10247000204E756D6265722B312C204C6173742077
:102480004C696E653A20004D313130005344207262
:10249000656164206572726F720A002121204B49C8
:1024A0004C4C20636175736564206279204B494C04
:1024B0004C20627574746F6E2F70696E0A00212152
:1024C000204B494C4C206361757365642062792010
:1024D000746F6F206D75636820696E6163746976CF
:1024E000652074696D65202D2063757272656E7448
:1024F00020636F6D6D616E643A2000D0A1D0B4D0BE
:10250000B5D0BBD0B0D0B9D182D0B520D181D0B1B7
:10251000D180D0BED18100D09FD0A0D098D09DD006
:10252000A2D095D0A020D09ED0A1D0A2D090D09DF6
:10253000D09ED092D09BD095D09D0025533A202597
:102540005300D0A3D091D098D0A2D09E2E2000507E
:1025500072696E7465722068616C7465642E206B9C
:10256000696C6C28292063616C6C6564210A0065C4
:1025700063686F3A004572726F723A000A4D656186
:10258000737572656420706F696E74733A0A0035F2
:102590007835206D6573682E205A206F66667365E6
:1025A000743A2000486F74656E6420746F6F206306
:1025B0006F6C640A0053656E64204D3130382074AE
:1025C0006F20726573756D650A00496E736572746C
:1025D0002066696C616D656E7420616E6420736540
:1025E0006E64204D3130380A0053656E64204D31E1
:1025F000303820746F2068656174206E6F7A7A6C51
:10260000650A00496E736572742066696C616D6558
:102610006E7420616E642073656E64204D313038B5
:102620000A004732362048656174696E67204E6F34
:102630007A7A6C65004732362048656174696E6746
:10264000204265640057616974696E6720666F7225
:10265000206865617475702E0A004669786564208B
:102660004C656E677468205072696D6500446F6ECA
:1026700065205072696D696E67004D616E75616CA1
:10268000207072696D696E672E2E2E0047323620DB
:1026900043616E63656C6564004C656176696E6765
:1026A00020473236003F5370656369666965642070
:1026B000582C5920636F6F7264696E617465206F66
:1026C0007574206F6620626F756E64732E0A003F0A
:1026D00028522965706561742076616C7565206E7D
:1026E0006F7420706C61757369626C653B206D75E9
:1026F0007374206265206174206C6561737420318D
:102700002E0A003F537065636966696564206E6FC9
:102710007A7A6C652074656D706572617475726526
:10272000206E6F7420706C61757369626C652E0A1F
:10273000003F5370656369666965642066696C6112
:102740006D656E742073697A65206E6F7420706C8D
:1027500061757369626C652E0A003F537065636929
:1027600066696564207072696D65206C656E67745A
:1027700068206E6F7420706C61757369626C652E71
:102780000A003F537065636966696564206E6F7AFD
:102790007A6C652073697A65206E6F7420706C6145
:1027A000757369626C652E0A003F496E76616C69CB
:1027B000642052657472616374696F6E2F556E7216
:1027C000657472616374696F6E20726174696F2ED3
:1027D000204D7573742062652077697468696E2076
:1027E000356D6D2E0A0020556E72657472616374CA
:1027F000696F6E20616D6F756E74206175746F6D99
:1028000061746963616C6C792073657420746F20E6
:10281000003F556E72657472616374696F6E206CEF
:10282000656E677468206D757374206265207370BF
:10283000656369666965642E0A003F537065636964
:102840006669656420556E72657472616374696F40
:102850006E206C656E677468206E6F7420706C619A
:10286000757369626C652E0A003F5265747261630C
:1028700074696F6E206C656E677468206D75737413
:10288000206265207370656369666965642E0A005D
:102890003F5370656369666965642052657472614F
:1028A0006374696F6E206C656E677468206E6F74F8
:1028B00020706C61757369626C652E0A003F5370FD
:1028C00065636966696564206C6179657220686515
:1028D00069676874206E6F7420706C6175736962CB
:1028E0006C652E0A0043292E0A003F537065636908
:1028F00066696564206265642074656D70657261E7
:1029000074757265206E6F7420706C617573696286
:102910006C65202834302D00473236207374617284
:1029200074696E672E2E2E0A004F46460A004661D5
:102930006465204865696768742000426564204CBE
:102940006576656C696E6720004661696C65642018
:10295000746F20656E61626C6520426564204C6511
:1029600076656C696E670A004D6573682042656420
:10297000204C6576656C20646174613A0A00496E8A
:1029800076616C6964206D6573682E0A00290A00FF
:10299000292D280020280053696D756C61746564C9
:1029A00020357835206D6573682000206E6F7420A7
:1029B000656E74657265642E0A00206F6620004D96
:1029C000424C2047323920706F696E742000290A0A
:1029D000004A206F7574206F662072616E676520F3
:1029E00028302D00290A0049206F7574206F662059
:1029F00072616E67652028302D004D657368207008
:102A0000726F62696E6720646F6E652E0A00537480
:102A1000617274206D6573682070726F62696E6791
:102A2000207769746820224732392053312220668A
:102A3000697273742E0A004732380A4732392053BC
:102A40003200686173206E6F20646174612E0A0029
:102A50004D65736820426564204C6576656C696ECF
:102A600067200053206F7574206F662072616E6757
:102A7000652028302D35292E0A004D657368207099
:102A80006F696E742063616E6E6F74206265207270
:102A900065736F6C7665640A004D34323120696E5F
:102AA000636F727265637420706172616D657465C5
:102AB000722075736167650A003D003F20616464A0
:102AC00072657373203A2000206279746573206FF9
:102AD00066206D656D6F727920696E697469616CCD
:102AE000697A65642E0A0A00556E61626C6520740D
:102AF0006F20696E697469616C697A652E0A0A00D3
:102B0000496E697469616C697A696E67206672657D
:102B100065206D656D6F727920626C6F636B2E0A34
:102B20000A0A00747275650A002072657475726E07
:102B30003D000A4D656D6F727920436F727275703A
:102B400074696F6E20646574656374656420696E72
:102B50002066726565206D656D6F727920617265A2
:102B6000612E0A002020626C6F636B5F666F756E6A
:102B7000643D002020200A002920666F756E643DA8
:102B8000002028002020204D656D6F727920636F32
:102B90007272757074696F6E2064657465637465B4
:102BA00064207769746820656E645F667265655F2E
:102BB0006D656D6F72793C486561700A0020656EC5
:102BC000645F667265655F6D656D6F7279203C202C
:102BD0004865617020002020656E645F66726565DF
:102BE0005F6D656D6F72793D000A667265655F6D38
:102BF000656D6F72795F73746172743D000A666D02
:102C0000632829206E3D00636865636B5F666F72A1
:102C10005F667265655F6D656D6F72795F636F7218
:102C200072757074696F6E2829203D20004D313017
:102C30003020462000206279746573206174200082
:102C40000A4C617267657374206672656520626CF8
:102C50006F636B20697320000A4D656D6F72792078
:102C6000436F7272757074696F6E2064657465630A
:102C700074656420696E2066726565206D656D6F90
:102C8000727920617265612E0A0020627974657321
:102C900020667265652061742000466F756E642041
:102CA000000A436F7272757074696E6720616464A4
:102CB000726573733A2000436F7272757074696E37
:102CC000672066726565206D656D6F727920626C34
:102CD0006F636B2E0A0A000A537461636B20506F96
:102CE000696E7465722020202020202020203A2048
:102CF000000A667265655F6D656D6F72795F656EFE
:102D000064202020202020203A20000A6672656579
:102D10005F6D656D6F72795F7374617274202020CE
:102D200020203A20000A6273735F656E64202020C1
:102D30002020202020202020202020203A20005069
:102D4000574D3A20202534640050574D3A20202515
:102D500034640050574D3A20202534640050574DBC
:102D60003A20202534640050574D3A202025346401
:102D70000050574D3A20202534640050574D3A20DA
:102D8000202534640050574D3A20202534640050EB
:102D9000574D3A20202534640050574D3A202025C5
:102DA00034640050574D3A20202534640050574D6C
:102DB0003A20202534640050574D3A2020253464B1
:102DC0000050574D3A20202534640050574D3A208A
:102DD000202534640050574D3A2020253464003AB1
:102DE000200020202020434F4D002020206E6F6EB9
:102DF0002D7374616E646172642050574D206D6F45
:102E0000646500202020636F6D7061726520696EBB
:102E10007465727275707420656E61626C656400B1
:102E20002020206F766572666C6F7720696E7465FE
:102E3000727275707420656E61626C6564003A2010
:102E4000002020202054494D534B00423A200020BE
:102E50002020205443435200413A200020202020CB
:102E600054434352002020202043533A2000202086
:102E7000202057474D3A200050574D3A2020253406
:102E8000640050574D3A2020253464004700480024
:102E9000000088008A008C00B300B4000000980095
:102EA0009A009C00A800AA00AC0028012A012C016D
:102EB0002020202054494D455200440045006E001A
:102EC000800081006F00B000B100700090009100A0
:102ED0007100A000A100720020012101730020698F
:102EE0007320616C736F207469656420746F207443
:102EF0006869732070696E0054494D455231430032
:102F00000A202E002020002020506F72743A2000EA
:102F100020202000202020416E616C6F6720696EA8
:102F2000203D2025356C64003C756E757365642FFB
:102F3000756E6B6E6F776E3E0020284125326429D6
:102F4000202000253364200050494E3A20004F7560
:102F500074707574203D2000496E70757420203D9A
:102F60002000416E616C6F6720696E203D20253521
:102F70006C640070726F746563746564200020284F
:102F80004125326429202000253364200050494E19
:102F90003A2000A7220001A22201019522320188D5
:102FA0002233017C22340171223501662225015E23
:102FB000221F01562221014E2223013B2207012F0D
:102FC00022330124223401192228010E222A01036E
:102FD000222C01F3212C01E8211C01DA211801CE59
:102FE000211A01C4212C01B9212201AB211E019F0C
:102FF000212401972109018E21070185212C0176C9
:1030000021130169210A015A210801512129014591
:10301000211701392119012D211B0121211D011128
:1030200021110105211001FD200D01EE204201E5D5
:10303000203201DC203301CE200A01C1200801B476
:10304000200901AC2034019E203101992035018EE8
:10305000200B0183200601782005016D2004016604
:103060002035015C2037014F20260145202B013BF4
:1030700020030130203601252003011B203D010ED5
:1030800020380104202A01F91F3C01EE1F2A01E427
:103090001F3001D71F3E01CD1F1201C21F2E01B7E5
:1030A0001F1201AC1F22019E1F1E01931F2B0187BF
:1030B0001F2401446F6E652E0A0050756C73696E93
:1030C0006720202000556E746F756368656420006A
:1030D000534552564F206E6F74207365742075707F
:1030E0002E0A005761746368696E672070696E7399
:1030F0000A0064697300656E0061626C65640A00B1
:10310000656E6473746F70206D6F6E69746F72207A
:10311000004D3630303A20D09DD0B8D0B7D0BAD09C
:10312000B0D18F20D0A200486F74656E6420746F98
:103130006F20636F6C640A0020496E76616C69646D
:10314000206578747275646572200047322F4733AA
:103150002062616420706172616D65746572730ACA
:1031600000D0A1D0BED0BD2E2E2E0053696D756C3F
:103170006174656420486F6D696E670A004D657300
:103180006820706F696E742063616E6E6F74206268
:1031900065207265736F6C7665640A00D09FD1807C
:1031A000D0BED0B4D0BED0BBD0B6D0B8D182D18C36
:1031B0002E2E2E00D09DD0B5D18220D0B4D0B2D04A
:1031C000B8D0B6D0B5D0BDD0B8D18F2E00456E6482
:1031D0002066696C65206C6973740A0042656769D2
:1031E0006E2066696C65206C6973740A00286E6FC6
:1031F0002066696C65290043757272656E7420667D
:10320000696C653A20005344207072696E74696E6F
:1032100067206279746520004E6F742053442070DB
:1032200072696E74696E670A002E0A0044656C65E7
:1032300074696F6E206661696C65642C2046696CE8
:10324000653A200046696C652064656C6574656448
:103250003A005072696E742074696D653A200049B5
:103260006E76616C69642050696E204D6F64650AEA
:10327000000A53746174733A2046696C616D656E1F
:103280007420757365643A20002C204C6F6E67655E
:103290007374206A6F623A2000546F74616C2074FA
:1032A000696D653A200053746174733A20002C20D4
:1032B0004661696C65643A20002C2046696E69732A
:1032C0006865643A20005072696E74733A20005346
:1032D000746174733A2000D09ED185D0BBD0B0D039
:1032E000B6D0B4D0B5D0BDD0B8D0B52E2E2E00D02B
:1032F0009DD0B0D0B3D180D0B5D0B22E2E2E004507
:10330000202553006F6B006F666600CD22C822C176
:1033100022BA22AC2244454255473A004D3131335E
:10332000205300D09ED185D0BBD0B0D0B6D0B4D081
:10333000B5D0BDD0B8D0B520D181D182D0BED0BB60
:10334000D0B02E2E2E00D09DD0B0D0B3D180D0B52D
:10335000D0B220D181D182D0BED0BBD0B02E2E2E03
:1033600000D0A8D0B0D0B9D182D0B0D0BD204F46C7
:10337000462E004348414D4245525F54454D50450D
:10338000524154555245004D4F54494F4E5F4D4F99
:1033900044455300544845524D414C5F50524F54A0
:1033A000454354494F4E004155544F5245504F529A
:1033B000545F53445F5354415455530050524F4D42
:1033C00050545F535550504F525400454D4552474D
:1033D000454E43595F504152534552004341534576
:1033E0005F4C494748545F4252494748544E455301
:1033F0005300544F47474C455F4C4947485453008E
:10340000534F4654574152455F504F574552004223
:1034100055494C445F50455243454E54004C455627
:10342000454C494E475F44415441005A5F50524F0A
:103430004245004155544F4C4556454C0050524969
:103440004E545F4A4F420050524F4752455353002B
:103450004155544F5245504F52545F54454D5000C2
:10346000564F4C554D455452494300454550524FD7
:103470004D0042494E4152595F46494C455F5452B6
:10348000414E534645520053455249414C5F584FB7
:103490004E5F584F4646004649524D574152455F90
:1034A0004E414D453A4D61726C696E20322E302E80
:1034B000352E332028646176696472616D69726F9C
:1034C0002C2047697468756229204D41524C494E41
:1034D0002D4149334D5F56455253494F4E3A76324E
:1034E0002E302E3120534F555243455F434F4445B4
:1034F0005F55524C3A68747470733A2F2F67697431
:103500006875622E636F6D2F646176696472616D98
:1035100069726F2F4D61726C696E2D4169334D2D4B
:10352000322E302E782050524F544F434F4C5F561E
:10353000455253494F4E3A312E30204D4143484970
:103540004E455F545950453AD0A8D0B0D0B9D18239
:10355000D0B0D0BD2045585452554445525F434FDA
:10356000554E543A3120555549443A6365646532A5
:103570006132662D343161322D343734382D396261
:1035800031322D6335356336326633363766660A37
:10359000002F2F20004D31343520533C696E646577
:1035A000783E206F7574206F662072616E676520AB
:1035B00028302D31290A00205200416363656C6573
:1035C000726174696F6E3A2050003F4A206F7574C3
:1035D000206F662072616E67652028302E303120A2
:1035E000746F20302E33290A004F4646004F4E009C
:1035F00020580020204D61783A2000200020204DE6
:10360000696E3A2000536F667420656E6473746F40
:1036100070733A200046523A0020466C6F773A2089
:103620000050726F7465637465642050696E0A009F
:1036300020643A0020693A0020703A00496E7661B1
:103640006C69642065787472756465720A00206420
:103650003A0020693A0020703A0064697300656E90
:103660000043290A0061626C656420286D696E2040
:1036700074656D702000436F6C642065787472759A
:1036800064657320617265200046696C616D656ECA
:10369000742072756E6F75742000D09AD0BED18080
:1036A000D180D0B5D0BAD186D0B8D0B820D0BFD1D3
:1036B00080D0B8D0BCD0B5D0BDD0B5D0BDD18B00F6
:1036C0004572723A20546F6F206661722100546F08
:1036D0006F206661722066726F6D2072656665721A
:1036E000656E636520706F696E740A0045455052BF
:1036F0004F4D204F4B0A00205A323A004475616CFE
:1037000020456E6473746F702041646A7573746DC4
:10371000656E7420286D6D293A20004D38383820A8
:10372000636F6F6C646F776E20726F7574696E650E
:1037300020646F6E650A00546172676574206E6F55
:103740007420726561636865642C207175657565A8
:103750006420616E206172630A00556C747261624C
:1037600061736520636F6F6C646F776E2073746133
:10377000727465640A002E0A002028302D31302929
:10378000002076616C7565206F7574206F662072FD
:10379000616E676500416476616E6365204B3D0034
:1037A000446F6E65207072696E74696E6720666919
:1037B0006C650A004D3737004D333100D092D0ABE5
:1037C000D093D0A0D0A3D097D09AD09020D0A4D01E
:1037D00098D09BD090D09CD095D09DD0A2D0900076
:1037E000D097D090D093D0A0D0A3D097D09AD0909B
:1037F00020D0A4D098D09BD090D09CD095D09DD0F4
:10380000A2D0900046494C414D454E54204348417A
:103810004E4745004361703A00220A00656E71759B
:10382000657565696E672022006F6B005265736570
:103830006E643A200043616E6E6F74206F70656E27
:103840002073756264697220002569730025696DB3
:1038500020256973002569682025696D2025697315
:1038600000256964202569682025696D2025697314
:103870000025697920256964202569682025696DFE
:10388000202569730023646566696E65204445469A
:1038900041554C545F00626564004B6420004B69E5
:1038A00020004B702000504944204175746F74759E
:1038B0006E652066696E6973686564212050757451
:1038C00020746865206C617374204B702C204B69E8
:1038D00020616E64204B6420636F6E7374616E743C
:1038E000732066726F6D2062656C6F7720696E74ED
:1038F0006F20436F6E66696775726174696F6E2EB3
:10390000680A00504944204175746F74756E6520D3
:103910006661696C6564212074696D656F75740AF0
:1039200000504944204175746F74756E652066615E
:10393000696C6564212054656D706572617475727F
:103940006520746F6F20686967680A00204B643ACD
:103950002000204B693A2000204B703A20000A20BA
:10396000436C617373696320504944200A00204B03
:10397000643A2000204B693A2000204B703A200026
:103980000A204E6F206F76657273686F6F740A003D
:103990002054753A2000204B753A2000206D617844
:1039A0003A2000206D696E3A200020643A20002001
:1039B000626961733A2000504944204175746F7404
:1039C000756E652073746172740A00504944204119
:1039D00075746F74756E65206661696C656421200D
:1039E00054656D706572617475726520746F6F20B7
:1039F000686967680A00504944204175746F74759E
:103A00006E65206661696C65642120426164206591
:103A100078747275646572206E756D6265720A00E5
:103A20004572723A207574663820666F6E74206E27
:103A30006F7420696E697469616C697A65642E00BF
:103A40004572723A207574663820666F6E74206E07
:103A50006F7420696E697469616C697A65642E009F
:103A60004572723A207574663820666F6E74206EE7
:103A70006F7420696E697469616C697A65642E007F
:103A80002568753A25303268750025303268753AF8
:103A900025303268750025687564202530326875D8
:103AA0003A253032687500D092D18BD0B3D180D115
:103AB00083D0B7D0BAD0B020D0BCD0BC00D097D083
:103AC000B0D0B3D180D183D0B7D0BAD0B020D0BCE1
:103AD000D0BC00D094D0B8D0B0D0BCD0B5D182D1B9
:103AE0008020D184D0B8D0BBD0B0D0BCD0B5D0BDB0
:103AF000D182D0B0004520D0B220D0BCD0BCC2B35F
:103B0000004B20D0BFD180D0BED0B4D0B2D0B8D07E
:103B1000B6D0B5D0BDD0B8D18F00200820D0A4D069
:103B2000B0D0BAD182D0BED18000200820D09CD0A5
:103B3000B0D0BAD18100200820D09CD0B8D0BD0030
:103B4000D092D18BD0BAD0BB00D092D0BAD0BB002B
:103B5000D090D0B2D182D0BED182D0B5D0BCD0BFAF
:103B6000D0B5D180D0B0D182D183D180D0B0005631
:103B7000D0BFD183D182D0B5D1882E20D0BCD0B8CF
:103B8000D0BD0056D0BCD0B8D0BD0056D0BCD0B04F
:103B9000D0BAD18120450056D0BCD0B0D0BAD181A6
:103BA000205A0056D0BCD0B0D0BAD181205900568E
:103BB000D0BCD0B0D0BAD18120580041D0BCD0B058
:103BC000D0BAD18120450041D0BCD0B0D0BAD1818B
:103BD000205A0041D0BCD0B0D0BAD1812059004188
:103BE000D0BCD0B0D0BAD181205800412DD0BFD1A7
:103BF00083D182D0B5D1882E00412DD0B2D182D1CF
:103C00008FD0B3D0B8D0B2D0B0D0BDD0B8D0B5007E
:103C1000D0A3D181D0BAD0BED180D0B5D0BDD0B8DC
:103C2000D0B5004A756E6374696F6E204465760086
:103C300045D188D0B0D0B32FD0BCD0BC005AD188E9
:103C4000D0B0D0B32FD0BCD0BC0059D188D0B0D028
:103C5000B32FD0BCD0BC0058D188D0B0D0B32FD0B7
:103C6000BCD0BC00D094D180D183D0B3D0B8D0B573
:103C700020D0BDD0B0D181D182D180D0BED0B9D03A
:103C8000BAD0B8003F00D09ED182D0BCD0B5D0BD54
:103C9000D0B000D098D0BDD0B8D186D0B8D0B0D0F8
:103CA000BBD0B8D0B7D0B0D186D0B8D18F004D340A
:103CB000323800D098D0B7D0BDD0B0D187D0B0D0F6
:103CC000BBD18CD0BDD18BD0B920454550524F4D82
:103CD00000D0A4D0B8D0BBD0B0D0BCD0B5D0BDD16E
:103CE0008200D0A2D0B5D0BCD0BFD0B5D180D0B0EA
:103CF000D182D183D180D0B000D0A8D0B0D0B32FA2
:103D0000D0BCD0BC00D0A0D18BD0B2D0BED0BA0035
:103D1000D0A3D181D0BAD0BED180D0B5D0BDD0B8DB
:103D2000D0B500D091D18BD181D182D180D0BED1FC
:103D300082D0B000D097D0B0D0BFD0BED0BCD0BD64
:103D4000D0B8D182D18C20D0BFD0B0D180D0BAD061
:103D5000BED0B2D0BAD18300D09DD0B0D181D182B3
:103D6000D180D0BED0B9D0BAD0B800D092D18BD14A
:103D700080D0B0D0B2D0BDD0B8D0B2D0B0D0BDD04D
:103D8000B8D0B520D0B3D0BED182D0BED0B2D0BED4
:103D90002100D094D0B2D0B8D0B6D0B5D0BDD0B874
:103DA000D0B520D0BFD0BE205A0047323920533280
:103DB00000D0A1D0BBD0B5D0B4D183D18ED189D021
:103DC000B0D18F20D182D0BED187D0BAD0B000255B
:103DD00069202F20257500473239205331004732A2
:103DE0003920533200D09DD0B0D0B6D0BCD0B8D19D
:103DF00082D0B520D187D182D0BED0B1D18B20D096
:103E0000BDD0B0D187D0B0D182D18C00D09DD1832C
:103E1000D0BBD0B5D0B2D0BED0B520D0BFD0BED0F0
:103E2000BBD0BED0B6D0B5D0BDD0B8D0B500D0A133
:103E3000D0BED185D180D0B0D0BDD0B8D182D18C08
:103E400020D0BDD0B0D181D182D180D0BED0B9D068
:103E5000BAD0B800D097D0B0D0B3D180D183D0B78A
:103E6000D0B8D182D18C20D0BDD0B0D181D182D177
:103E700080D0BED0B9D0BAD0B8005A20D181D1827A
:103E8000D0BED0BBD0B000D092D18BD181D0BED12A
:103E900082D0B020D181D0BFD0B0D0B4D0B000D0CB
:103EA00092D18BD0BAD0BB00D092D0BAD0BB00D0C8
:103EB0009AD0B0D0BBD0B8D0B1D180D0BED0B2D023
:103EC000BAD0B020D181D182D0BED0BBD0B000D08A
:103ED0009AD0B0D0BBD0B8D0B1D180D0BED0B2D003
:103EE000B0D182D18C20D181D182D0BED0BB00D0C4
:103EF00094D0B2D0B8D0B6D0B5D0BDD0B8D0B5007F
:103F0000D0A1D182D0BED0BB00D0A1D0BED0BFD076
:103F1000BBD0BE00D09AD183D0BBD0B5D18000D069
:103F20009DD0B0D181D182D180D0BED0B9D0BAD00D
:103F3000B800D097D0B0D0B3D180D183D0B7D0B8AB
:103F4000D182D18C20D0BDD0B0D181D182D180D0CE
:103F5000BED0B9D0BAD0B800D092D0B5D180D0BD43
:103F6000D183D182D18C20D0BDD0B0D181D182D1AA
:103F700080D0BED0B9D0BAD0B800D0A1D0BED18543
:103F8000D180D0B0D0BDD0B8D182D18C20D0BDD01E
:103F9000B0D181D182D180D0BED0B9D0BAD0B80052
:103FA000D09DD0B0D0B3D180D0B5D0B22050455440
:103FB0004720D0BFD180D0B0D0B2D0BAD0B000D0DE
:103FC0009DD0B0D0B3D180D0B5D0B220504C4120DC
:103FD000D0BFD180D0B0D0B2D0BAD0B000D092D1C2
:103FE0008BD0BAD0BB00D092D0BAD0BB0052756E85
:103FF0006F75742053656E736F7200D094D180D149
:1040000083D0B3D0B8D0B520D0BDD0B0D181D182CB
:10401000D180D0BED0B9D0BAD0B800D09CD0B5D065
:10402000BDD18E004D37303220542564004D3630DE
:104030003020423020542564004D373032203B255B
:1040400064004D3730312054256400D092D18BD09C
:10405000BAD0BB00D092D0BAD0BB0052756E6F758B
:10406000742053656E736F7200D092D18BD0B4D030
:10407000B0D0B2D0B8D182D18C20D0B5D189D19175
:1040800000D092D0BED0B7D0BED0B1D0BDD0BED0BF
:10409000B2D0B8D182D18C20D0BFD0B5D187D0B02A
:1040A000D182D18C00D09ED09FD0A6D098D098201D
:1040B000D092D09ED097D09ED091D09DD09ED092BD
:1040C000D09BD095D09DD098D0AF3A00D09FD095BE
:1040D000D0A7D090D0A2D0AC20D09DD09020D09F9F
:1040E000D090D0A3D097D095002020D0A1D0BED022
:1040F000BFD0BBD0B03A20005061726B696E672EA2
:104100002E2E000000D09ED0B6D0B8D0B4D0B0D003
:10411000B9D182D0B500D0BDD0B0D187D0B0D0BB9E
:10412000D0B020D181D0BCD0B5D0BDD18B00D1844E
:10413000D0B8D0BBD0B0D0BCD0B5D0BDD182D0B07B
:1041400000D09ED0B6D0B8D0B4D0B0D0B9D182D043
:10415000B500D0B2D18BD0B3D180D183D0B7D0BA93
:10416000D0B800D184D0B8D0BBD0B0D0BCD0B5D0FE
:10417000BDD182D0B000D09DD0B0D0B3D180D0B569
:10418000D0B220D181D0BED0BFD0BBD0B000D096AD
:10419000D0B4D0B8D182D0B52E2E2E0000D09DD074
:1041A000B0D0B6D0BCD0B8D182D0B520D0BAD0BDB6
:1041B000D0BED0BFD0BAD18320D0B4D0BBD18F0075
:1041C000D0BDD0B0D0B3D180D0B5D0B2D0B020D196
:1041D00081D0BED0BFD0BBD0B02E2E2E0000D0924A
:1041E000D181D182D0B0D0B2D18CD182D0B520D003
:1041F000BFD180D183D182D0BED0BA00D0B820D078
:10420000BDD0B0D0B6D0BCD0B8D182D0B520D0BA55
:10421000D0BDD0BED0BFD0BAD18300D0B4D0BBD136
:104220008F20D0BFD180D0BED0B4D0BED0BBD0B64E
:10423000D0B5D0BDD0B8D18F00D09ED0B6D0B8D038
:10424000B4D0B0D0B9D182D0B500D0B7D0B0D0B34F
:10425000D180D183D0B7D0BAD0B820D0BFD180D14F
:1042600083D182D0BAD0B0000050726573732042FF
:104270007574746F6E00746F20726573756D652050
:104280007072696E740000D09ED0B6D0B8D0B4D031
:10429000B0D0B9D182D0B500D0B2D0BED0B7D0BEE8
:1042A000D0B1D0BDD0BED0B2D0BBD0B5D0BDD0B8CB
:1042B000D18F00D0BFD0B5D187D0B0D182D0B800D7
:1042C000D09ED0B6D0B8D0B4D0B0D0B9D182D0B50D
:1042D00000D18DD0BAD181D182D180D183D0B7D055
:1042E000B8D0B800D184D0B8D0BBD0B0D0BCD0B595
:1042F000D0BDD182D0B0003E2000256C642E25694F
:104300006D00D094D0BBD0B8D0BDD0B020D184D077
:10431000B8D0BBD0B0D0BCD0B5D0BDD182D0B00069
:104320003E2000D09DD0B0D0B8D0B4D0BED0BBD14C
:104330008CD188D0B5D0B520D0B7D0B0D0B4D0B063
:10434000D0BDD0B8D0B5003E2000D09ED0B1D1892C
:10435000D0B5D0B520D0B2D180D0B5D0BCD18F20CF
:10436000D0BFD0B5D187D0B0D182D0B800D097D04F
:10437000B0D0BAD0BED0BDD187D0B5D0BDD0BE00F0
:104380003A2000D0A1D187D191D182D187D0B8D0A5
:10439000BA20D0BFD0B5D187D0B0D182D0B8003A42
:1043A0002000313530003A200035003A20004245E7
:1043B000443A4550434F53203130304B00D09AD0CF
:1043C000BED0BDD182D180D0BED0BBD18C20D18215
:1043D000D0B5D0BCD0BF2E3A20D092D0BAD0BB003E
:1043E000D0A2D0B5D0BCD0BFD0B5D180D0B0D18212
:1043F000D183D180D0B020D0BCD0B0D0BAD1810090
:10440000323735003A2000D0A2D0B5D0BCD0BFD0D2
:10441000B5D180D0B0D182D183D180D0B020D0BCF2
:10442000D0B8D0BD2E0035003A200045313A2041A9
:1044300054432031303447542D3200D091D09F0066
:1044400047656E65726963003A2000D09FD180D0C5
:10445000BED182D0BED0BAD0BED0BB00312E30008B
:104460003A2000D0A1D0BAD0BED180D0BED181D167
:1044700082D18C20D091D09ED09400323530303013
:1044800030003A2000416E796375626963205241C1
:104490004D505320312E3400D09AD0B0D0BBD0B87C
:1044A000D0B1D180D0BED0B2D0BAD0B020D181D0DE
:1044B000B5D182D0BAD0B800D0ADD0BAD181D18236
:1044C000D180D183D0B4D0B5D180D18B0031003A26
:1044D0002000687474703A2F2F6D61726C696E667B
:1044E000772E6F726700D0A8D0B0D0B9D182D0B08B
:1044F000D0BD00323032302D30332D333100322EEA
:10450000302E352E33004D61726C696E00D0A1D112
:1045100082D0B0D182D0B8D181D182D0B8D0BAD037
:10452000B020D0BFD180D0B8D0BDD182D0B5D1809D
:10453000D0B000D0A2D0B5D180D0BCD0B8D181D17C
:1045400082D0BED180D18B00D094D0B0D0BDD0BDB0
:10455000D18BD0B520D0BFD0BBD0B0D182D18B0011
:10456000D094D0B0D0BDD0BDD18BD0B520D0BFD1EC
:1045700080D0B8D0BDD182D0B5D180D0B000D09C91
:10458000D0B5D0BDD18E003F00D09DD0B0D0B7D037
:10459000B0D0B400D09ED181D182D0B0D0BDD0BE39
:1045A000D0B2D0B8D182D18C00D0A1D0BCD0B5D0FF
:1045B000BDD0B020D184D0B8D0BBD0B0D0BCD0B5A5
:1045C000D0BDD182D0B000D09FD180D0B5D0B4D0F2
:1045D000BDD0B0D0B3D180D0B5D0B2205045544773
:1045E00000D09FD180D0B5D0B4D0BDD0B0D0B3D1A1
:1045F00080D0B5D0B220504C4100507265686561E2
:104600007420437573746F6D00D09DD0B0D0B7D057
:10461000B0D0B400D09FD0B5D187D0B0D182D18CEA
:1046200020D18120534420D0BAD0B0D180D182D1C2
:104630008B004D323100D0A1D0BCD0B5D0BDD0B8A8
:10464000D182D18C20534420D0BAD0B0D180D18235
:10465000D18300D09E20D0BFD180D0B8D0BDD18230
:10466000D0B5D180D0B5004D36303020423000D0AA
:10467000A1D0BCD0B5D0BDD0B020D184D0B8D0BBF3
:10468000D0B0D0BCD0B5D0BDD182D0B000D09DD0FC
:10469000B0D181D182D180D0BED0B9D0BAD0B8004B
:1046A000D0A2D0B5D0BCD0BFD0B5D180D0B0D1824F
:1046B000D183D180D0B000D094D0B2D0B8D0B6D011
:1046C000B5D0BDD0B8D0B500D09FD180D0BED0B4C9
:1046D000D0BED0BBD0B6D0B8D182D18C20D0BFD084
:1046E000B5D187D0B0D182D18C00D09DD0B5D18248
:1046F00020534420D0BAD0B0D180D182D18B00D009
:104700009DD0B0D181D182D180D0BED0B8D182D15C
:104710008C00D09ED181D182D0B0D0BDD0BED0B2DD
:10472000D0B8D182D18C20D0BFD0B5D187D0B0D174
:1047300082D18C00D09FD0B0D183D0B7D0B020D060
:10474000BFD0B5D187D0B0D182D0B800D093D0BB84
:10475000D0B0D0B2D0BDD18BD0B920D18DD0BAD10C
:1047600080D0B0D0BD003F00D09DD0B0D187D0B0B8
:10477000D0BBD0BE20D0BFD0B5D187D0B0D182D0F1
:10478000B800D09ED182D0BCD0B5D0BDD0B000D0C2
:104790009FD0B5D187D0B0D182D18C0043616E6EED
:1047A0006F7420656E746572207375626469723A05
:1047B0002000022E2E00D09CD0B5D0BDD18E00D0CE
:1047C00092D18BD0BAD0BB00D092D0BAD0BB00D09F
:1047D0009FD180D0BED0B3D1802E20D18DD0BDD07E
:1047E000B4D181D182D0BED0BFD18B00D094D0B211
:1047F000D0B8D0B6D0B5D0BDD0B8D0B500000C0D73
:1048000000FE07022603BC01FFFE0AFE08FE0508A3
:104810000806000040F0C888889878100508080647
:104820000000C0F88888888888F80505050600011A
:104830002030F830200508080600002070F82020FD
:104840002020E00509090600FF2070A8A8B8888884
:104850007020050606060001E08CEA8C8A0A05092C
:10486000090600FFF8A88888888888A8F8050A0A39
:104870000600FE205050505088A8A88870030303FB
:1048800006000340A040FFFFFFFFFFFFFFFFFFFF09
:10489000FFFFFFFFFFFFFFFFFFFFFFFF000000061E
:1048A00005FF0107070602008080808080008003EA
:1048B0000303060105A0A0A005060606000050F8A7
:1048C0005050F8500509090600FF2070A8A0702874
:1048D000A87020050707060000C8C8102040989857
:1048E00005070706000040A0A040A8906801030348
:1048F0000602058080800309090601FF20404080F0
:1049000080804040200309090601FF8040402020AC
:104910002040408005070706000020A8702070A8EE
:10492000200505050600012020F8202002030306CB
:1049300001FFC04080050101060003F802020206E3
:104940000100C0C005070706000008101020404005
:1049500080050707060000708898A8C888700307BC
:104960000706010040C040404040E0050707060040
:1049700000708808102040F8050707060000F808B6
:10498000103008887005070706000010305090F8B6
:104990001010050707060000F880F0080888700569
:1049A0000707060000304080F0888870050707067A
:1049B0000000F808101020202005070706000070EE
:1049C00088887088887005070706000070888878D6
:1049D000081060020505060100C0C000C0C0020644
:1049E000060601FFC0C000C04080030505060101A6
:1049F0002040804020050303060002F800F803056C
:104A00000506010180402040800507070600007070
:104A10008810202000200507070600007088B8A82D
:104A2000B88070050707060000708888F8888888B5
:104A3000050707060000F04848704848F0050707DA
:104A400006000070888080808870050707060000D7
:104A5000F04848484848F0050707060000F88080FD
:104A6000F08080F8050707060000F88080F080805D
:104A70008005070706000070888080988870050709
:104A800007060000888888F88888880307070601D9
:104A900000E04040404040E00507070600003810B5
:104AA00010101090600507070600008890A0C0A0B5
:104AB0009088050707060000808080808080F805C8
:104AC000070706000088D8A8888888880507070691
:104AD00000008888C8A89888880507070600007025
:104AE000888888888870050707060000F08888F0A5
:104AF00080808005070706000070888888A8906875
:104B0000050707060000F08888F0A09088050707D1
:104B1000060000708880700888700507070600008E
:104B2000F82020202020200507070600008888881C
:104B30008888887005070706000088888888505094
:104B40002005070706000088888888A8A850050760
:104B5000070600008888502050888805070706004F
:104B60000088885020202020050707060000F8084C
:104B700010204080F80309090601FFE08080808052
:104B8000808080E00507070600008040402010106C
:104B9000080309090601FFE020202020202020E052
:104BA0000503030600052050880501010600FEF8F4
:104BB000030303060105804020050505060000707B
:104BC000087888780507070600008080F0888888C4
:104BD000F00505050600007080808870050707064F
:104BE00000000808788888887805050506000070A8
:104BF00088F08070050707060000304840E040401C
:104C0000400507070600FE70888888780870050749
:104C1000070600008080F08888888803070706015F
:104C2000004000C0404040E00409090601FE1000B9
:104C30003010101010906005070706000080808873
:104C400090E09088030707060100C04040404040C4
:104C5000E0050505060000D0A8A8A8A805050506DA
:104C60000000B0C88888880505050600007088889F
:104C700088700507070600FEF0888888F0808005A8
:104C800007070600FE788888887808080505050665
:104C90000000B0C88080800505050600007880709F
:104CA00008F00507070600002020F820202018053E
:104CB0000505060000888888986805050506000037
:104CC00088888850200505050600008888A8A85017
:104CD00005050506000088502050880507070600D6
:104CE000FE88888850204080050505060000F810E1
:104CF0002040F80309090601FF2040404080404061
:104D000040200109090602FF808080808080808029
:104D1000800309090601FF80404040204040408058
:104D200005030306000248A890FFFFFFFFFFFFFFF7
:104D3000FFFFFFFFFFFFFFFFFFFFFFFFFFFFFFFF83
:104D4000FFFFFFFFFFFFFFFFFFFF0000000605FF63
:104D50000107070602008000808080808005070729
:104D60000600FF2070A8A0A8702005070706000015
:104D7000304840E04048B0050505060000A85088CE
:104D800050A80507070600008850F820F8202001E9
:104D900007070602008080800080808004080806E3
:104DA000010070806090906010E00301010601072F
:104DB000A00607070600007884B4A4B4847803052D
:104DC0000506010460A06000E00505050600002856
:104DD00050A05028050303060001F808080301014C
:104DE000060103E00607070600007884B4A4A48443
:104DF00078050101060007F8040404060105609027
:104E000090600507070600002020F8202000F80326
:104E1000050506010440A02040E003050506010445
:104E2000C0204020C0030303060105204080050781
:104E3000070600FE88888898E88080050808060034
:104E40000078E8E8E868282828020202060203C081
:104E5000C00302020601FE20C0030505060104404E
:104E6000C04040E003050506010540A04000E00504
:104E70000505060000A0502850A0050A0A060000FB
:104E800040C048506050B0507810050A0A06000033
:104E900040C048506050A8081038050A0A060000B3
:104EA000C0204830E050B0507810050707060000D9
:104EB00020002020408870050A0A060000402000DB
:104EC000708888F8888888050A0A06000010200083
:104ED000708888F8888888050A0A06000020500033
:104EE000708888F8888888050A0A06000068B0007B
:104EF000708888F8888888050909060000500070C5
:104F00008888F8888888050A0A06000020502070E2
:104F10008888F888888805070706000078A0A0F030
:104F2000A0A0B80509090600FE70888080808870FE
:104F30001060050A0A060000402000F88080F0801A
:104F400080F8050A0A060000102000F88080F08032
:104F500080F8050A0A060000205000F88080F080E2
:104F600080F80509090600005000F88080F0808074
:104F7000F8030A0A060100804000E040404040403B
:104F8000E0030A0A060100204000E04040404040A3
:104F9000E0030A0A06010040A000E0404040404013
:104FA000E0030909060100A000E04040404040E065
:104FB000050707060000704848E8484870050A0AD7
:104FC00006000068B0008888C8A8988888050A0A82
:104FD00006000040200070888888888870050A0ACA
:104FE00006000010200070888888888870050A0AEA
:104FF00006000020500070888888888870050A0A9A
:1050000006000068B00070888888888870050909E3
:10501000060000500070888888888870050505069D
:10502000000188502050880509090600FF08709883
:10503000A8A8A8C87080050A0A06000040200088B9
:10504000888888888870050A0A0600001020008871
:10505000888888888870050A0A0600002050008821
:1050600088888888887005090906000050008888AB
:105070008888888870050A0A060000102000888841
:10508000502020202004070706010080E090909027
:10509000E080050707060000708890A09088B005A2
:1050A0000808060000402000700878887805080885
:1050B00006000010200070087888780508080600AF
:1050C00000205000700878887805080806000068FD
:1050D000B000700878887805070706000050007057
:1050E00008788878050808060000205020700878A5
:1050F0008878050505060000702870A07805070768
:105100000600FE70888088701060050808060000A0
:105110004020007088F0807005080806000010200C
:10512000007088F0807005080806000020500070AC
:1051300088F0807005070706000050007088F08036
:1051400070030808060100804000C0404040E003B2
:105150000808060100204000C0404040E003080865
:1051600006010040A000C0404040E00307070601E0
:1051700000A000C0404040E00509090600005020A2
:105180005008788888887005080806000068B00014
:10519000B0C888888805080806000040200070888C
:1051A000888870050808060000102000708888882C
:1051B0007005080806000020500070888888700577
:1051C000080806000068B000708888887005070726
:1051D00006000050007088888870050505060001EB
:1051E0002000F800200505050600007898A8C8F002
:1051F0000508080600004020008888888870050897
:1052000008060000102000888888887005080806B5
:105210000000205000888888887005070706000075
:1052200050008888888870050A0A0600FE10200051
:10523000888888502040800509090600FE8080F09B
:10524000888888F080800509090600FE500088885B
:105250008850204080D09FD0B5D187D0B0D182D1A6
:105260008C20D0BDD0B020D0BFD0B0D183D0B7D0AB
:10527000B5001000C90210012C014001220170018B
:105280001801B0010E01F00104015002FA00B00251
:10529000F0003003E600D003DC009004D20070057B
:1052A000C800A006BE000008B400B009AA00D00BD8
:1052B000A000600E960060118C000015820020197D
:1052C0007800C01D6E00A0226400B0275A00902C08
:1052D000500000314600E0343C0010383200903A73
:1052E0002800603C1E00A03D1400803E0A00203FC4
:1052F000000043616E6E6F74206F70656E20737571
:1053000062646972200053442063617264206F6B91
:105310000A006F70656E526F6F74206661696C650C
:10532000640A00766F6C756D652E696E697420660F
:1053300061696C65640A00534420696E6974206673
:1053400061696C0A004D3234004D32332025730000
:1053500046696C652073656C65637465640A00203A
:1053600053697A653A200046696C65206F70656EF6
:1053700065643A2000454E4420535542524F5554DF
:10538000494E450A002220706F730022207061721E
:10539000656E743A2200535542524F5554494E455A
:1053A0002043414C4C207461726765743A2200744A
:1053B0007279696E6720746F2063616C6C207375FD
:1053C000622D67636F64652066696C657320776919
:1053D000746820746F6F206D616E79206C657665DE
:1053E0006C732E204D4158206C6576656C20697376
:1053F0003A310A0057726974696E6720746F2066CB
:10540000696C653A20002E0A006F70656E20666137
:10541000696C65642C2046696C653A20006672658B
:10542000736800646F696E67002066696C653A2076
:10543000004E6F77200000002100240027002A0082
:105440002D003000330001010000040107010A01B2
:1054500000002200250028002B002E00310034001F
:1054600002010000050108010B01000020002300DB
:10547000260029002C002F0032000001000003014B
:1054800006010901050505050705080808080202C7
:1054900002020A0A080804040404010101010101CE
:1054A00001010303030303030303040707070C0CB1
:1054B0000C0C0C0C0C0C0202020206060606060678
:1054C00006060B0B0B0B0B0B0B0B0102102020081D
:1054D000081020401020408002010201080402014F
:1054E00001020408102040808040201008040201BE
:1054F0008004020180402010080402010804020117
:10550000010204081020408001020408102040809D
:1055100000000A0B02090C0D0E080703040100002D
:10552000000000000000000000000000000000007B
:105530000000000000000000000000001211100038
:10554000000000000000000000000000000000005B
:105550000000000000000273657475702829206344
:105560006F6D706C657465642E0077617463686438
:105570006F675F696E697428290073746570706560
:10558000722E696E6974282900656E6473746F7079
:10559000732E696E69742829007072696E745F6A6F
:1055A0006F625F74696D65722E696E697428290077
:1055B000746865726D616C4D616E616765722E69AC
:1055C0006E697428290073657474696E67732E663A
:1055D000697273745F6C6F616428290075692E723B
:1055E000657365745F7374617475732829007569D8
:1055F0002E696E6974282900636F6E74726F6C6C0B
:10560000657246616E2E73657475702829002020BE
:10561000506C616E6E657242756666657242797431
:1056200065733A20002046726565204D656D6F7286
:10563000793A2000436F6D70696C65643A2041755A
:105640006720323420323032300A00204C617374CB
:1056500020557064617465643A20323032302D30E8
:10566000332D3331207C20417574686F723A20618C
:105670006E647277676C646D6E0A0076322E302E1F
:10568000310A004D61726C696E2D4149334D003213
:105690002E302E352E330A004D61726C696E00205B
:1056A000536F6674776172652052657365740A0082
:1056B000205761746368646F672052657365740A6C
:1056C000002042726F776E206F757420526573658B
:1056D000740A002045787465726E616C205265739F
:1056E00065740A00506F77657255700A00737461B3
:1056F00072740A006175746F25632E670047323833
:105700005859004D31303031006572726F72207718
:10571000726974696E6720746F2066696C650A002F
:10572000446F6E6520736176696E672066696C658B
:105730002E0A004D323900D0ADD0BDD0B4D181D1C8
:1057400082D0BED0BFD18B00255320256320256396
:1057500020256320256300205A3A0020593A002072
:10576000583A00656E6473746F7073206869743A98
:105770002000D094D0B2D0B8D0B6D0B5D0BDD0B87B
:10578000D0B5202573D0BCD0BC0000D094D0B2D00E
:10579000B8D0B6D0B5D0BDD0B8D0B520302E31D02D
:1057A000BCD0BC00D094D0B2D0B8D0B6D0B5D0BDAB
:1057B000D0B8D0B52031D0BCD0BC00D094D0B2D0BD
:1057C000B8D0B6D0B5D0BDD0B8D0B5203130D0BC6F
:1057D000D0BC00D094D0B2D0B8D0B6D0B5D0BDD067
:1057E000B8D0B520D0BFD0BE20D0BED181D18FD00F
:1057F000BC00D0A1D0BED0BFD0BBD0BE20D0BDD0C9
:10580000B520D0BDD0B0D0B3D180D0B5D182D0BE7C
:1058100000D0ADD0BAD181D182D180D183D0B4D0E3
:10582000B5D18000D094D0B2D0B8D0B6D0B5D0BD6C
:10583000D0B8D0B520D0BFD0BE205A00D094D0B2BE
:10584000D0B8D0B6D0B5D0BDD0B8D0B520D0BFD0AC
:10585000BE205900D094D0B2D0B8D0B6D0B5D0BD0B
:10586000D0B8D0B520D0BFD0BE205800D09FD0B582
:10587000D187D0B0D182D18C20D18120534420D087
:10588000BAD0B0D180D182D18B00D0A8D0B0D0B95D
:10589000D182D0B0D0BD20D0B3D0BED182D0BED0C6
:1058A000B22E005072696E74696E672E2E2E00D073
:1058B0009FD0B0D180D0BAD183D0B92025732573C1
:1058C000257320D181D0BDD0B0D187D0B0D0BBD08E
:1058D000B000220A00556E6B6E6F776E20636F6D9D
:1058E0006D616E643A202200204500205A00205944
:1058F00000204D393220580020453A00205A3A0005
:1059000020593A00583A0020746F6F206C6F6E6710
:1059100020657874727573696F6E20707265766534
:105920006E7465640A0020636F6C6420657874721D
:105930007573696F6E2070726576656E7465640A42
:10594000002E0A006F70656E206661696C65642CBC
:105950002046696C653A20007201BE0011241FBE0A
:10596000CFEFD1E2DEBFCDBF00E00CBF13E0A0E07F
:10597000B2E0E0E8FEEB02E00BBF02C007900D9240
:10598000AC36B107D9F72AE1ACE6B3E001C01D920D
:10599000AA39B207E1F71CE2CDEADCE200E006C07A
:1059A00021970109802FFE010F94A95ECC3AD107FF
:1059B00080E00807A9F70F94F5480D942E5F0C942A
:1059C0000000EF92FF920F931F93E0921F04F0925A
:1059D0002004009321041093220460932304709305
:1059E0002404809325049FEFFF27621B730B840B15
:1059F00030F4809570956195790B890B9927909378
:105A00009D05A6E06A9F00929105512DEE277A9F91
:105A1000500DE11D8A9FE00D50939205E093930590
:105A2000AFE06A9F00929505512DEE277A9F500DA9
:105A3000E11D8A9FE00D50939605E0939705AAE03B
:105A40006A9F00929905512DEE277A9F500DE11D16
:105A50008A9FE00D50939A05E0939B051F910F914B
:105A6000FF90EF9008959F92AF92BF92CF92DF92F6
:105A7000EF92FF920F931F93CF93DF9300D01F926B
:105A80001F92CDB7DEB7E0E0F4E10027BB27462F39
:105A9000572FA82FAA2341F4A52F542FB85FAA236C
:105AA00019F4A52F5527B85FA03138F45295A29567
:105AB000452F4F70507FA42BBC5FA03428F4550FA6
:105AC000AA1F550FAA1FBE5FA03818F4550FAA1FB2
:105AD000B395550FAA1FEA0FF01F449151E0AA2772
